:020000040000fa
:080000000002040000000000f2
:020000040000fa
:04000800c80200002a
:020000040000fa
:04000c00c802000026
:020000040000fa
:04001000c802000022
:020000040000fa
:04001400c80200001e
:020000040000fa
:04001800c80200001a
:020000040000fa
:04001c00c802000016
:020000040000fa
:04002000c802000012
:020000040000fa
:04002400c80200000e
:020000040000fa
:04002800c80200000a
:020000040000fa
:04002c00c802000006
:020000040000fa
:04003000c802000002
:020000040000fa
:04003400c8020000fe
:020000040000fa
:04003800c8020000fa
:020000040000fa
:04003c00c8020000f6
:020000040000fa
:04004000c8020000f2
:020000040000fa
:04004400c8020000ee
:020000040000fa
:04004800c8020000ea
:020000040000fa
:04004c00c8020000e6
:020000040000fa
:04005000c8020000e2
:020000040000fa
:04005400c8020000de
:020000040000fa
:04005800c8020000da
:020000040000fa
:04005c00c8020000d6
:020000040000fa
:04006000c8020000d2
:020000040000fa
:04006400c8020000ce
:020000040000fa
:04006800c8020000ca
:020000040000fa
:04006c00c8020000c6
:020000040000fa
:04007000c8020000c2
:020000040000fa
:04007400c8020000be
:020000040000fa
:04007800c8020000ba
:020000040000fa
:04007c00c8020000b6
:020000040000fa
:04008000c8020000b2
:020000040000fa
:04008400c8020000ae
:020000040000fa
:04008800c8020000aa
:020000040000fa
:04008c00c8020000a6
:020000040000fa
:04009000c8020000a2
:020000040000fa
:04009400c80200009e
:020000040000fa
:04009800c80200009a
:020000040000fa
:04009c00c802000096
:020000040000fa
:0400a000c802000092
:020000040000fa
:0400a400c80200008e
:020000040000fa
:0400a800c80200008a
:020000040000fa
:0400ac00c802000086
:020000040000fa
:0400b000c802000082
:020000040000fa
:0400b400c80200007e
:020000040000fa
:0400b800c80200007a
:020000040000fa
:0400bc00c802000076
:020000040000fa
:0400c000c802000072
:020000040000fa
:0400c400c80200006e
:020000040000fa
:0400c800c80200006a
:020000040000fa
:0400cc00c802000066
:020000040000fa
:0400d000c802000062
:020000040000fa
:0400d400c80200005e
:020000040000fa
:0400d800c80200005a
:020000040000fa
:0400dc00c802000056
:020000040000fa
:0400e000c802000052
:020000040000fa
:0400e400c80200004e
:020000040000fa
:0400e800c80200004a
:020000040000fa
:0400ec00c802000046
:020000040000fa
:0400f000c802000042
:020000040000fa
:0400f400c80200003e
:020000040000fa
:0400f800c80200003a
:020000040000fa
:0400fc00c802000036
:020000040000fa
:04010000c802000031
:020000040000fa
:04010400c80200002d
:020000040000fa
:04010800c802000029
:020000040000fa
:04010c00c802000025
:020000040000fa
:04011000c802000021
:020000040000fa
:04011400c80200001d
:020000040000fa
:04011800c802000019
:020000040000fa
:04011c00c802000015
:020000040000fa
:04012000c802000011
:020000040000fa
:04012400c80200000d
:020000040000fa
:04012800c802000009
:020000040000fa
:04012c00c802000005
:020000040000fa
:04013000c802000001
:020000040000fa
:04013400c8020000fd
:020000040000fa
:04020800c802000028
:020000040000fa
:04020c00c802000024
:020000040000fa
:04021000c802000020
:020000040000fa
:04021400c80200001c
:020000040000fa
:04021800c802000018
:020000040000fa
:04021c00c802000014
:020000040000fa
:04022000c802000010
:020000040000fa
:04022400c80200000c
:020000040000fa
:04022800c802000008
:020000040000fa
:04022c00c802000004
:020000040000fa
:04023000c802000000
:020000040000fa
:04023400c8020000fc
:020000040000fa
:04023800c8020000f8
:020000040000fa
:04023c00c8020000f4
:020000040000fa
:04024000c8020000f0
:020000040000fa
:04024400c8020000ec
:020000040000fa
:04024800c8020000e8
:020000040000fa
:04024c00c8020000e4
:020000040000fa
:04025000c8020000e0
:020000040000fa
:04025400c8020000dc
:020000040000fa
:04025800c8020000d8
:020000040000fa
:04025c00c8020000d4
:020000040000fa
:04026000c8020000d0
:020000040000fa
:04026400c8020000cc
:020000040000fa
:04026800c8020000c8
:020000040000fa
:04026c00c8020000c4
:020000040000fa
:04027000c8020000c0
:020000040000fa
:04027400c8020000bc
:020000040000fa
:04027800c8020000b8
:020000040000fa
:04027c00c8020000b4
:020000040000fa
:04028000c8020000b0
:020000040000fa
:04028400c8020000ac
:020000040000fa
:04028800c8020000a8
:020000040000fa
:04028c00c8020000a4
:020000040000fa
:04029000c8020000a0
:020000040000fa
:04029400c80200009c
:020000040000fa
:04029800c802000098
:020000040000fa
:04029c00c802000094
:020000040000fa
:0402a000c802000090
:020000040000fa
:0402a400c80200008c
:020000040000fa
:0402a800c802000088
:020000040000fa
:0402ac00c802000084
:020000040000fa
:0402b000c802000080
:020000040000fa
:0402b400c80200007c
:020000040000fa
:0402b800c802000078
:020000040000fa
:0402bc00c802000074
:020000040000fa
:0402c000c802000070
:020000040000fa
:0402c400c80200006c
:020000040000fa
:0402c800c802000068
:020000040000fa
:0402cc00c802000064
:020000040000fa
:0402d000c802000060
:020000040000fa
:0402d400c80200005c
:020000040000fa
:0402d800c802000058
:020000040000fa
:0402dc00c802000054
:020000040000fa
:0402e000c802000050
:020000040000fa
:0402e400c80200004c
:020000040000fa
:0402e800c802000048
:020000040000fa
:0402ec00c802000044
:020000040000fa
:0402f000c802000040
:020000040000fa
:0402f400c80200003c
:020000040000fa
:0402f800c802000038
:020000040000fa
:0402fc00c802000034
:020000040000fa
:04030000c80200002f
:020000040000fa
:04030400c80200002b
:020000040000fa
:04030800c802000027
:020000040000fa
:04030c00c802000023
:020000040000fa
:04031000c80200001f
:020000040000fa
:04031400c80200001b
:020000040000fa
:04031800c802000017
:020000040000fa
:04031c00c802000013
:020000040000fa
:04032000c80200000f
:020000040000fa
:04032400c80200000b
:020000040000fa
:04032800c802000007
:020000040000fa
:04032c00c802000003
:020000040000fa
:04033000c8020000ff
:020000040000fa
:04033400c8020000fb
:020000040000fa
:100400000f8020000e7f22000e01880000000000f7
:10041000000020000000e000020032000001200087
:1004200020028800140007005b0007000000e000c5
:1004300003003a0000002000010020000200370005
:100440000000200001002000810f70000100320038
:1004500014000700000020000000e000020032004d
:100460000000020000000000d203020000000000b3
:100470000040da000000fe004440a9000000200017
:100480000000e0000300320000002000a00188000e
:100490004440a800000006008a1f78008b1f7800e7
:1004a0000000060091018800800478000000eb0045
:1004b0001a003700e284440032a0b4009905ba0063
:1004c000e284440032a0b4009906ba00e2844400f9
:1004d00032a0b4000006eb00476fde00fd07b2005b
:1004e000636ce10003003a00ebff07000000eb0043
:1004f0000a003700606ce10004003a00005deb0088
:100500008b05e900fdff3e00040037006168e10053
:10051000010032000086eb000b00070019c7ba008b
:100520001905ba000e04e00003003a000a00e000da
:10053000e0ff3a0000000600fe07b2009e018800be
:100540008a047800f5ff3700395dba008b05e900b1
:100550000c003200295dba008b05e900080032006a
:100560000c00e00003003a00e284440032a0b40032
:10057000f5ff370019ddba008b05e900faff3a00f4
:100580008904e800e184440032a0b40000000600c1
:0c0590000040da000000fe000000050042
:020000040000fa
:10059c000400fa00100798001e009000e40f5000b1
:1005ac0004003200e50f50000400320000c0eb00e4
:1005bc0010003700000000000100370000000000b0
:1005cc001e0090000d000700d1cc2c000100b800db
:1005dc004308de00004f780040c6b3009e40780010
:1005ec0080cf50000200360040c6b300004f7800a8
:1005fc001e4078000080fa00000006000400fa009b
:10060c00100798001e009000e40f50000400320008
:10061c00e50f5000040032000080eb001f00370093
:10062c000000000001003700000000009e00900058
:10063c00411988002023a8000000eb00000f78006f
:10064c0002003700000000001e0fe800703e200082
:10065c009e007800808f5000faff36002023a900fe
:10066c000000eb00000f78000200370000000000d3
:10067c001e0fe800703e20009e007800808f500016
:10068c00faff3600000000000019800061006000d5
:10069c000000e000fcff3200001880000080fa002f
:1006ac00000006000200fa00000f78001e0078001f
:1006bc00e40f500005003200e50f500006003a0030
:1006cc002ca3a90010c0b300040037002c83a90090
:1006dc0010c0b300010037000040eb000080fa00ae
:1006ec00000006000200fa00000f78001e007800df
:1006fc000000e0001a003a0011198000f0ff210000
:10070c00008060001019880000c0eb0024e3b700e3
:10071c0001198000f0f12f000080600000198800a2
:10072c0021198000f00f2e000080600000c0a00096
:10073c002019880001198000f0cf2f000080600084
:10074c00001988001119800030fc2f000080600017
:10075c001019880021e3a80010c0b3000100370075
:10076c000040eb000080fa00000006000000fa00d8
:10077c000000eb00dbff070050002000c9ff070062
:10078c00c022ef00901680000060a0009016880038
:10079c000080fa00000006000c00fa00f3ff0700ce
:1007ac000040eb00004f780010c0b30010479800d9
:1007bc005000200091ff07008000eb00100798000c
:1007cc00210798001e019000ae019000f0ff2f0051
:1007dc0001002000800f5100818f590002003a0067
:1007ec0000000000f2ff3700ae00900000fa20007d
:1007fc000088b900000178001e0090006000b9006c
:10080c0000007800000141009e00900000fa2000da
:10081c000008b800010141008200780002c42900e0
:10082c00030020000000410081804900300798003f
:10083c0041079800a01680004600de006140600071
:10084c00204f98001e409000e14f500007003a00e6
:10085c002e4890000004e00004003a001e04a200a0
:10086c0000c429000100200068000700ae48900079
:10087c00114798001e4078000004e0000a003a007e
:10088c0010002000201688003e009000ce00900042
:10089c005e000700c422ef003e009000ce009000e6
:1008ac005a000700c2ff37000080eb0020168800ba
:1008bc003e009000ce00900054000700c422ef00d0
:1008cc003e009000ce00900050000700b8ff3700ab
:1008dc000200fa00000f78001e007800e20f5000b2
:1008ec0013003200e20f500003003e00e10f5000f5
:1008fc000600320029003700e30f500015003200cb
:10090c00e40f50001c00320024003700a1168000b8
:10091c00000420000080600000f0a7000000ea0046
:10092c000000e9004f00de00004078001c0037009a
:10093c00a1168000000820000080600000f0a700d5
:10094c000000ea000000e9004f00de0000407800e3
:10095c001300370011168000000820000080600092
:10096c0000f0a7000000ea000000e9004f00de00e4
:10097c00004078000a003700a11680000000220019
:10098c000080600000f0a7000000ea000000e90011
:10099c004f00de0000407800010037000040eb0003
:1009ac000080fa00000006000200fa00000f780038
:1009bc001e007800e20f50000c003200e20f5000d5
:1009cc0003003e00e10f5000060032000d0037001e
:1009dc00e30f500007003200e40f50000700320014
:1009ec0008003700d2c2a80006003700d2e2a800e7
:1009fc0004003700c0e2a80002003700d3a2a80010
:0c0a0c00000000000080fa00000006005e
:020000040000fa
:100a1800f03fb1000180b10006003500ee03090087
:100a280000000000403fb1000180b100fbff3d0025
:100a38001000b000203fb00002003500008009001f
:080a48000000000000000600a0
:020000040000fa
:020000040002f8
:04aff8009dfa0000be
:020000040000fa
:020000040002f8
:04affc00ff3f000013
:00000001FF
